:100000000C9462000C948A000C948A000C948A0070
:100010000C948A000C948A000C948A000C948A0038
:100020000C948A000C948A000C948A000C948A0028
:100030000C948A000C948A000C948A000C948A0018
:100040000C9425070C948A000C94D0050C9413068C
:100050000C948A000C948A000C948A000C948A00F8
:100060000C948A000C948A00000000070002010032
:100070000003040600000000000000000102040864
:100080001020408001020408102001020408102002
:10009000040404040404040402020202020203032E
:1000A00003030303000000002300260029000000D2
:1000B0000000250028002B0000000000240027007D
:1000C0002A00CF0611241FBECFEFD8E0DEBFCDBF80
:1000D00011E0A0E0B1E0E8E3F4E102C005900D9288
:1000E000A632B107D9F721E0A6E2B1E001C01D9226
:1000F000A93DB207E1F710E0C4ECD0E004C02297BC
:10010000FE010E94070AC23CD107C9F70E943105CF
:100110000C94B6070C94000061E082E00E94D201CA
:1001200060E082E00E940B0260E084E00E94D20165
:1001300060E087E00E94D20140E855E260E070E0B4
:1001400086E291E00C944E066F927F929F92AF925E
:10015000BF92CF92DF92EF92FF920F931F93CF93B4
:10016000DF9300D000D0CDB7DEB704E610E0C12C9D
:10017000D12C760183E10E948C01BC01882777FD98
:100180008095982F0E94BD089B01AC01C701B60164
:100190000E94BA076B017C0101501109011511057C
:1001A00049F72091000130910101409102015091E5
:1001B000030182E129833A834B835C830E948C0193
:1001C0005C019BB084E00E9441028C0187E00E94A8
:1001D00041023C0186E291E00E943E05892B09F430
:1001E00089C086E291E00E942E0529813A814B81E7
:1001F0005C816230710549F063307105D9F061307E
:10020000710509F077C061E001C060E082E00F9005
:100210000F900F900F90DF91CF911F910F91FF9052
:10022000EF90DF90CF90BF90AF909F907F906F90B6
:100230000C940B02C701B6010E94710920E030EC5A
:100240004FE754E40E94220820E030E040E850E408
:100250000E94B907AB01BC0122E030E086E291E0E8
:100260000E94730465E071E086E291E00E94A802BA
:100270004AE050E0B50186E291E00E94680365E043
:1002800071E086E291E00E94A80292FA662760F986
:100290004AE050E070E086E291E00E94680365E089
:1002A00071E086E291E00E94A8024AE050E0B801C5
:1002B00086E291E00E94680365E071E086E291E0E9
:1002C0000E94A8024AE050E0B30186E291E00F905C
:1002D0000F900F900F90DF91CF911F910F91FF9092
:1002E000EF90DF90CF90BF90AF909F907F906F90F6
:1002F0000C9470030F900F900F900F90DF91CF919F
:100300001F910F91FF90EF90DF90CF90BF90AF9033
:100310009F907F906F9008958E3008F08E50877078
:100320002091040190E4299F90011124822B809355
:100330007C0080917A00806480937A0080917A00BA
:1003400086FDFCCF809178002091790090E0922B7F
:100350000895833081F028F4813099F08230A1F043
:1003600008958630A9F08730B9F08430D1F48091B7
:1003700080008F7D03C0809180008F778093800004
:10038000089584B58F7702C084B58F7D84BD0895AC
:100390008091B0008F7703C08091B0008F7D8093F3
:1003A000B0000895CF93DF9390E0FC01E458FF4F35
:1003B0002491FC01E057FF4F8491882349F190E09C
:1003C000880F991FFC01E854FF4FA591B491825505
:1003D0009F4FFC01C591D4919FB7611108C0F8945B
:1003E0008C91209582238C93888182230AC062306D
:1003F00051F4F8948C91322F309583238C9388811B
:10040000822B888304C0F8948C91822B8C939FBF9D
:10041000DF91CF9108950F931F93CF93DF931F9296
:10042000CDB7DEB7282F30E0F901E859FF4F8491AE
:10043000F901E458FF4F1491F901E057FF4F04917F
:100440000023C9F0882321F069830E94A9016981F2
:10045000E02FF0E0EE0FFF1FE255FF4FA591B491A2
:100460009FB7F8948C91611103C01095812301C04E
:10047000812B8C939FBF0F90DF91CF911F910F9194
:100480000895CF93DF93282F30E0F901E859FF4F0B
:100490008491F901E458FF4FD491F901E057FF4FDF
:1004A000C491CC2391F081110E94A901EC2FF0E0BE
:1004B000EE0FFF1FEC55FF4FA591B4912C912D230A
:1004C00081E090E021F480E002C080E090E0DF91E4
:1004D000CF910895CF92DF92EF92FF920F931F93E7
:1004E000CF93DF936C017A01EB01E60EF71E00E07B
:1004F00010E0CE15DF0561F06991D601ED91FC9118
:100500000190F081E02DC6010995080F191FF1CF68
:10051000C801DF91CF911F910F91FF90EF90DF9075
:10052000CF9008956115710581F0DB010D900020D9
:10053000E9F7AD0141505109461B570BDC01ED9124
:10054000FC910280F381E02D099480E090E0089511
:100550000C949202DC01ED91FC910190F081E02D70
:1005600009940F931F93CF93DF93EC016DE00E94EA
:10057000AA028C016AE0CE010E94AA02800F911F9C
:10058000DF91CF911F910F9108958F929F92AF921B
:10059000BF92CF92DF92EF92FF920F931F93CF9370
:1005A000DF93CDB7DEB7A1970FB6F894DEBF0FBECD
:1005B000CDBF7C01C42EE52FCB01D22E19A221E0A4
:1005C0002D1510F02AE0D22E8E010F5D1F4F8D2CBD
:1005D000912CA12CB12C6C2D7E2FA50194010E9491
:1005E000D8098C2DD29E80191124015011098A300E
:1005F00014F4805D01C0895CF80180832115310508
:100600004105510521F0C22EE32FCA01E4CFB80104
:10061000C7010E949202A1960FB6F894DEBF0FBEEA
:10062000CDBFDF91CF911F910F91FF90EF90DF90A1
:10063000CF90BF90AF909F908F900895CF92DF9210
:10064000EF92FF920F931F93CF93DF93EC016A0118
:100650007B012115310579F4E881F9810190F08160
:10066000E02D642FDF91CF911F910F91FF90EF90BC
:10067000DF90CF9009942A303105E9F477FF1AC052
:100680006DE20E94AA028C0144275527BA014C1939
:100690005D096E097F092AE0CE010E94C502800F24
:1006A000911FDF91CF911F910F91FF90EF90DF90FD
:1006B000CF9008952AE0B701A601CE01DF91CF9136
:1006C0001F910F91FF90EF90DF90CF900C94C50297
:1006D0009A01AB01662757FD6095762F0C941E0397
:1006E0000F931F93CF93DF93EC019A01AB01662721
:1006F00057FD6095762F0E941E038C01CE010E944B
:10070000B102800F911FDF91CF911F910F9108953A
:100710004F925F926F927F928F929F92AF92BF9211
:10072000CF92DF92EF92FF920F931F93CF93DF93BD
:10073000EC016A017B01B22E9A01AB01C701B6013F
:100740000E94D409882319F067E071E027C02601D0
:100750003701E89477F82FEF3FEF4FE75FE7C301EA
:10076000B2010E94D40981110DC02FEF3FEF4FE776
:100770005FE7C301B2010E941E0818161CF46BE06B
:1007800071E00CC02FEF3FEF4FE75FE4C701B60108
:100790000E946D091816ACF46FE071E0CE01DF9194
:1007A000CF911F910F91FF90EF90DF90CF90BF906E
:1007B000AF909F908F907F906F905F904F900C9430
:1007C00092022FEF3FEF4FE75FECC701B6010E94A7
:1007D0001E0887FDE1CF20E030E0A901C701B60186
:1007E0000E941E0887FF0AC06DE2CE010E94AA0285
:1007F0008C01F7FAF094F7F8F09402C000E010E0F2
:10080000A12C60E070E080E09FE3AB1441F020E0B9
:1008100030E040E251E40E942208A394F6CF9B010D
:10082000AC01C701B6010E94BA076B017C010E94AE
:100830008F082B013C010E94BB089B01AC01C70142
:10084000B6010E94B9076B017C012AE0B301A20145
:10085000CE010E94C502080F191FBB2039F063E1C9
:1008600071E0CE010E949202080F191F7B2C7720A5
:1008700041F120E030E040E251E4C701B6010E94BE
:1008800071096B017C010E948A084B01AA2497FC24
:10089000A094BA2C2AE030E0B501A401CE010E9458
:1008A0001E03080F191FC501B4010E94BD089B015A
:1008B000AC01C701B6010E94B9076B017C017A94B3
:1008C000D6CFC801DF91CF911F910F91FF90EF908C
:1008D000DF90CF90BF90AF909F908F907F906F9060
:1008E0005F904F9008950C9488030F931F93CF93BC
:1008F000DF93EC010E946F07688779878A879B875F
:10090000E881F9810084F185E02DCE01099597FFFA
:1009100015C00E946F07088519852A853B85601BD5
:10092000710B820B930B0C811D812E813F8160170F
:1009300071078207930720F38FEF9FEFDF91CF912D
:100940001F910F910895CF93DF93EC01CE010E9488
:10095000750497FD11C08D32910571F09C012053F3
:1009600031092A30310540F0E881F9810680F781AC
:10097000E02DCE010995EACFDF91CF910895CF9276
:10098000DF92FF920F931F93CF93DF9300D000D09D
:10099000CDB7DEB76C01062F0E94A304FC0197FDC2
:1009A0004BC020E030E0A901F12C112707FD109584
:1009B000E017F107E9F0ED32F105C1F0CF01C09782
:1009C0000A97B0F4AAE0B0E00E94FA099B01AC01DA
:1009D000CF01AA2797FDA095BA2F280F391F4A1FCC
:1009E0005B1F205331094109510902C0FF24F394D0
:1009F000D601ED91FC910680F781E02DC601298397
:100A00003A834B835C830995C6010E947504FC01FF
:100A1000C09729813A814B815C810A9748F2E0179F
:100A2000F10731F2FF2061F066277727CB01621BC7
:100A3000730B840B950B06C060E070E0CB0102C025
:100A4000CA01B9010F900F900F900F90DF91CF91D5
:100A50001F910F91FF90DF90CF90089561E00C946B
:100A6000BF040E947B070E948C00CAE0D6E00E946F
:100A7000A4002097E1F30E940A06F9CFFC01248527
:100A80003585F901E05CFF4F8081918132962081AC
:100A90003181821B930B8F7399270895FC01848504
:100AA0009585FC01E05CFF4F4081518132962081A9
:100AB00031814217530741F00190F081E02DE80F9A
:100AC000F91F808190E008958FEF9FEF0895FC015A
:100AD00084859585FC01E05CFF4F40815181329611
:100AE000208131814217530779F0A081B181A80F8D
:100AF000B91F8C91208131812F5F3F4F2F73332796
:100B00003183208390E008958FEF9FEF0895FC01DB
:100B100081A1882329F0A489B5898C9186FFFBCF18
:100B200011A20895CF93DF93FC0126853785D90163
:100B3000A05CBF4F8D919C91119701968F7399275F
:100B4000E901CE5BDF4F4881598184179507D9F3BE
:100B50000D90BC91A02DA20FB31F6C93A685B785F5
:100B6000A05CBF4F11969C938E93A689B7892C9158
:100B700081E090E0078C02C0880F991F0A94E2F789
:100B8000282B2C9381E081A30488F589E02D8081B6
:100B90008064808381E090E0DF91CF910895089593
:100BA0001F920F920FB60F9211242F933F934F93E2
:100BB0008F939F93EF93FF938091C00082FD1CC0A1
:100BC0004091C6008091CC019091CD0101968F7328
:100BD00099272091CE013091CF018217930771F0B0
:100BE000E091CC01F091CD01E457FE4F408390930A
:100BF000CD018093CC0102C08091C600FF91EF919E
:100C00009F918F914F913F912F910F900FBE0F9019
:100C10001F90189586E291E00E943E05892B11F005
:100C20000C94CF0508951F920F920FB60F921124C6
:100C30002F933F938F939F93EF93FF93209188017E
:100C40003091890180918A0190918B012817390791
:100C500031F48091C1008F7D8093C10014C0E09178
:100C60008A01F0918B01E85BFE4F208180918A011F
:100C700090918B0101968F73992790938B018093AC
:100C80008A012093C600FF91EF919F918F913F9130
:100C90002F910F900FBE0F901F901895CF92DF925B
:100CA000EF92FF92CF93DF93EC016A017B01411534
:100CB00081EE580761057105F9F0EC89FD8981E045
:100CC00090E008A002C0880F991F0A94E2F7808381
:100CD00060E079E08DE390E0A70196010E94D809D9
:100CE0002150310941095109569547953795279566
:100CF000211580E1380798F0EC89FD89108260E8C1
:100D000074E88EE190E0A70196010E94D809215075
:100D10003109410951095695479537952795E88935
:100D2000F9893083EA89FB89208319A2EE89FF893A
:100D3000408181E090E09C010C8C02C0220F331FA7
:100D40000A94E2F7422B4083EE89FF8940819C019F
:100D50000D8C02C0220F331F0A94E2F7422B40830E
:100D6000EE89FF8940819C010E8C02C0220F331F47
:100D70000A94E2F7422B4083EE89FF8920810F8C91
:100D800002C0880F991F0A94E2F78095822380831E
:100D9000DF91CF91FF90EF90DF90CF900895109268
:100DA00029011092280188EE93E0A0E0B0E0809342
:100DB0002A0190932B01A0932C01B0932D0189E17E
:100DC00091E090932701809326018CE891E0909325
:100DD00033018093320188E491E090933501809350
:100DE000340185EC90E0909337018093360184ECD8
:100DF00090E0909339018093380180EC90E09093DB
:100E00003B0180933A0181EC90E090933D01809307
:100E10003C0182EC90E090933F0180933E0186EC90
:100E200090E0909341018093400184E080934201DF
:100E300083E08093430187E08093440185E08093C1
:100E4000450181E08093460108951F920F920FB6ED
:100E50000F9211242F933F938F939F93AF93BF9340
:100E60008091D1019091D201A091D301B091D40190
:100E70003091D00123E0230F2D3720F40196A11DDE
:100E8000B11D05C026E8230F0296A11DB11D2093B8
:100E9000D0018093D1019093D201A093D301B0935C
:100EA000D4018091D5019091D601A091D701B09144
:100EB000D8010196A11DB11D8093D5019093D60153
:100EC000A093D701B093D801BF91AF919F918F911B
:100ED0003F912F910F900FBE0F901F9018952FB735
:100EE000F8946091D1017091D2018091D3019091D9
:100EF000D4012FBF0895789484B5826084BD84B5F1
:100F0000816084BD85B5826085BD85B5816085BD04
:100F1000EEE6F0E0808181608083E1E8F0E010821D
:100F2000808182608083808181608083E0E8F0E05E
:100F3000808181608083E1EBF0E080818460808348
:100F4000E0EBF0E0808181608083EAE7F0E080817F
:100F500084608083808182608083808181608083DF
:100F60008081806880831092C1000895F8940C9469
:100F70001A0A5058BB27AA270ED075C166D130F087
:100F80006BD120F031F49F3F11F41EF45BC10EF4DD
:100F9000E095E7FB51C1E92F77D180F3BA176207DB
:100FA00073078407950718F071F49EF58FC10EF44E
:100FB000E0950B2EBA2FA02D0B01B90190010C0169
:100FC000CA01A0011124FF27591B99F0593F50F481
:100FD000503E68F11A16F040A22F232F342F4427D9
:100FE000585FF3CF469537952795A795F0405395D1
:100FF000C9F77EF41F16BA0B620B730B840BBAF0A1
:101000009150A1F0FF0FBB1F661F771F881FC2F70B
:101010000EC0BA0F621F731F841F48F4879577951F
:101020006795B795F7959E3F08F0B3CF9395880FD6
:1010300008F09927EE0F979587950895D9D008F471
:1010400081E008950CD00FC107D140F0FED030F000
:1010500021F45F3F19F0F0C0511139C1F3C014D130
:1010600098F39923C9F35523B1F3951B550BBB276F
:10107000AA2762177307840738F09F5F5F4F220F1C
:10108000331F441FAA1FA9F333D00E2E3AF0E0E815
:1010900030D091505040E695001CCAF729D0FE2F61
:1010A00027D0660F771F881FBB1F261737074807F3
:1010B000AB07B0E809F0BB0B802DBF01FF279358A9
:1010C0005F4F2AF09E3F510568F0B6C000C15F3FF8
:1010D000ECF3983EDCF3869577956795B795F79591
:1010E0009F5FC9F7880F911D9695879597F9089589
:1010F000E1E0660F771F881FBB1F62177307840725
:10110000BA0720F0621B730B840BBA0BEE1F88F733
:10111000E095089504D06894B111D9C00895BCD069
:1011200088F09F5790F0B92F9927B751A0F0D1F0D0
:10113000660F771F881F991F1AF0BA95C9F712C05A
:10114000B13081F0C3D0B1E00895C0C0672F782FCF
:101150008827B85F39F0B93FCCF3869577956795C6
:10116000B395D9F73EF490958095709561957F4F32
:101170008F4F9F4F0895E89409C097FB3EF49095D8
:101180008095709561957F4F8F4F9F4F9923A9F060
:10119000F92F96E9BB279395F695879577956795EF
:1011A000B795F111F8CFFAF4BB0F11F460FF1BC033
:1011B0006F5F7F4F8F4F9F4F16C0882311F096E9C6
:1011C00011C0772321F09EE8872F762F05C0662374
:1011D00071F096E8862F70E060E02AF09A95660F2D
:1011E000771F881FDAF7880F9695879597F90895E6
:1011F000990F0008550FAA0BE0E8FEEF1616170628
:10120000E807F907C0F012161306E407F50798F08F
:10121000621B730B840B950B39F40A2661F0232BA8
:10122000242B252B21F408950A2609F4A140A69524
:101230008FEF811D811D089597F99F6780E870E009
:1012400060E008959FEF80EC089500240A9416163C
:10125000170618060906089500240A9412161306A4
:10126000140605060895092E0394000C11F4882332
:1012700052F0BB0F40F4BF2B11F460FF04C06F5F4E
:101280007F4F8F4F9F4F089557FD9058440F551F24
:1012900059F05F3F71F04795880F97FB991F61F0F8
:1012A0009F3F79F087950895121613061406551F6F
:1012B000F2CF4695F1DF08C0161617061806991FDB
:1012C000F1CF86957105610508940895E894BB27D0
:1012D00066277727CB0197F908958ADF08F48FEF07
:1012E00008950BD0C0CFB1DF28F0B6DF18F09523FA
:1012F00009F0A2CFA7CF1124EACFC6DFA0F3959FB4
:10130000D1F3950F50E0551F629FF001729FBB27EC
:10131000F00DB11D639FAA27F00DB11DAA1F649F98
:101320006627B00DA11D661F829F2227B00DA11D4B
:10133000621F739FB00DA11D621F839FA00D611DD1
:10134000221F749F3327A00D611D231F849F600DF2
:10135000211D822F762F6A2F11249F5750408AF02B
:10136000E1F088234AF0EE0FFF1FBB1F661F771FB7
:10137000881F91505040A9F79E3F510570F05CCFF7
:10138000A6CF5F3FECF3983EDCF3869577956795A3
:10139000B795F795E7959F5FC1F7FE2B880F911DD5
:1013A0009695879597F9089523DF880B990B0895F3
:1013B000A1E21A2EAA1BBB1BFD010DC0AA1FBB1F59
:1013C000EE1FFF1FA217B307E407F50720F0A21BCB
:1013D000B30BE40BF50B661F771F881F991F1A9438
:1013E00069F760957095809590959B01AC01BD0162
:1013F000CF0108950E940B0AA59F900DB49F900DF8
:10140000A49F800D911D11240895EE0FFF1F0590DC
:10141000F491E02D0994A29FB001B39FC001A39F56
:10142000700D811D1124911DB29F700D811D11241D
:08143000911D0895F894FFCF0F
:101438000000A0400120006E616E00696E66006FBA
:101448007666002E000000000092056A023E0567DD
:06145800054E05870500AA
:00000001FF
