:100000000C946B000C9493000C9493000C9493004C
:100010000C9493000C9493000C9493000C94930014
:100020000C9493000C9493000C9493000C94800710
:100030000C9493000C9493000C9493000C949300F4
:100040000C9474090C9493000C942B060C946E067B
:100050000C9493000C9493000C9493000C949300D4
:100060000C9493000C9493002B012D013001A101FD
:10007000A401D401BC01BE01000000070002010080
:100080000003040600000000000000000102040854
:1000900010204080010204081020010204081020F2
:1000A000040404040404040402020202020203031E
:1000B00003030303000000002300260029000000C2
:1000C0000000250028002B0000000000240027006D
:1000D0002A00C1002A0711241FBECFEFD8E0DEBFDF
:1000E000CDBF11E0A0E0B1E0EAEDF9E102C005907A
:1000F0000D92AA32B107D9F722E0AAE2B1E001C01D
:100100001D92A630B207E1F710E0C6EDD0E004C0C2
:100110002297FE010E94CD0CC23DD107C9F70E9473
:100120008C050C944C0A0C94000061E082E00E9463
:100130002D0261E083E00E942D0260E082E00E94D7
:10014000660260E083E00E94660260E084E00E9454
:100150002D0260E087E00E942D0269E070E08AE2F3
:1001600091E00E94D60860E070E08AE291E00E948F
:100170000F0940E855E260E070E08DE291E00C94F8
:10018000A9068AE291E00C943C086F927F928F92CC
:100190009F92AF92BF92CF92DF92EF92FF920F9316
:1001A0001F93CF93DF9300D000D0CDB7DEB704E626
:1001B00010E0C12CD12C760183E10E94E701BC0143
:1001C000882777FD8095982F0E94530B9B01AC01E7
:1001D000C701B6010E94500A6B017C010150110950
:1001E0000115110549F72091040130910501409155
:1001F00006015091070182E129833A834B835C8396
:100200000E94E7015C018BB09BB084E00E949C02DD
:100210008C0187E00E949C023C018DE291E00E94EB
:100220009905892B09F4C0C08DE291E00E948905EF
:10023000CB01AA2797FDA095BA2FFC013197298100
:100240003A814B815C81E830F10508F0ADC0EC5C8F
:10025000FF4F0C94CB0C61E001C060E082E090C0E5
:10026000C701B6010E94070C20E030EC4FE754E4D0
:100270000E94B80A20E030E040E850E40E944F0AB3
:10028000AB01BC0122E030E08DE291E00E94CE049F
:1002900069E071E08DE291E00E9403034AE050E0E2
:1002A000B5018DE291E00E94C30369E071E08DE247
:1002B00091E00E94030382FA662760F94AE050E069
:1002C00070E08DE291E00E94C30369E071E08DE28D
:1002D00091E00E94030393FA662760F94AE050E038
:1002E00070E08DE291E00E94C30369E071E08DE26D
:1002F00091E00E9403034AE050E0B8018DE291E0F2
:100300000E94C30369E071E08DE291E00E94030363
:100310004AE050E0B3018DE291E00F900F900F9012
:100320000F90DF91CF911F910F91FF90EF90DF9091
:10033000CF90BF90AF909F908F907F906F900C94D4
:10034000CB0360E070E002C06AE570E08AE291E011
:100350000F900F900F900F90DF91CF911F910F9101
:10036000FF90EF90DF90CF90BF90AF909F908F90D5
:100370007F906F900C940F0961E001C060E083E012
:100380000F900F900F900F90DF91CF911F910F91D1
:10039000FF90EF90DF90CF90BF90AF909F908F90A5
:1003A0007F906F900C9466020F900F900F900F90BB
:1003B000DF91CF911F910F91FF90EF90DF90CF9041
:1003C000BF90AF909F908F907F906F9008958E30E8
:1003D00008F08E5087702091080190E4299F9001C9
:1003E0001124822B80937C0080917A00806480931A
:1003F0007A0080917A0086FDFCCF80917800209170
:10040000790090E0922B0895833081F028F48130B8
:1004100099F08230A1F008958630A9F08730B9F0C4
:100420008430D1F4809180008F7D03C08091800062
:100430008F7780938000089584B58F7702C084B54C
:100440008F7D84BD08958091B0008F7703C0809127
:10045000B0008F7D8093B0000895CF93DF9390E03C
:10046000FC01E457FF4F2491FC01E056FF4F8491BB
:10047000882349F190E0880F991FFC01E853FF4F52
:10048000A591B49182549F4FFC01C591D4919FB71F
:10049000611108C0F8948C91209582238C938881F7
:1004A00082230AC0623051F4F8948C91322F309537
:1004B00083238C938881822B888304C0F8948C9149
:1004C000822B8C939FBFDF91CF9108950F931F9341
:1004D000CF93DF931F92CDB7DEB7282F30E0F9011D
:1004E000E858FF4F8491F901E457FF4F1491F90147
:1004F000E056FF4F04910023C9F0882321F069835F
:100500000E9404026981E02FF0E0EE0FFF1FE25429
:10051000FF4FA591B4919FB7F8948C91611103C0DE
:100520001095812301C0812B8C939FBF0F90DF9189
:10053000CF911F910F910895CF93DF93282F30E033
:10054000F901E858FF4F8491F901E457FF4FD49126
:10055000F901E056FF4FC491CC2391F081110E9424
:100560000402EC2FF0E0EE0FFF1FEC54FF4FA591BB
:10057000B4912C912D2381E090E021F480E002C021
:1005800080E090E0DF91CF910895CF92DF92EF92DB
:10059000FF920F931F93CF93DF936C017A01EB01CE
:1005A000E60EF71E00E010E0CE15DF0561F0699160
:1005B000D601ED91FC910190F081E02DC6010995E5
:1005C000080F191FF1CFC801DF91CF911F910F9133
:1005D000FF90EF90DF90CF9008956115710581F045
:1005E000DB010D900020E9F7AD0141505109461B98
:1005F000570BDC01ED91FC910280F381E02D099411
:1006000080E090E008950C94ED02DC01ED91FC9106
:100610000190F081E02D09940F931F93CF93DF9306
:10062000EC016DE00E9405038C016AE0CE010E949E
:100630000503800F911FDF91CF911F910F910895B6
:100640008F929F92AF92BF92CF92DF92EF92FF92E2
:100650000F931F93CF93DF93CDB7DEB7A1970FB65C
:10066000F894DEBF0FBECDBF7C01C42EE52FCB01B9
:10067000D22E19A221E02D1510F02AE0D22E8E01E3
:100680000F5D1F4F8D2C912CA12CB12C6C2D7E2F2A
:10069000A50194010E948A0C8C2DD29E80191124F0
:1006A000015011098A3014F4805D01C0895CF801A1
:1006B0008083211531054105510521F0C22EE32F1C
:1006C000CA01E4CFB801C7010E94ED02A1960FB69E
:1006D000F894DEBF0FBECDBFDF91CF911F910F9178
:1006E000FF90EF90DF90CF90BF90AF909F908F9052
:1006F0000895CF92DF92EF92FF920F931F93CF93C3
:10070000DF93EC016A017B012115310579F4E88161
:10071000F9810190F081E02D642FDF91CF911F913D
:100720000F91FF90EF90DF90CF9009942A30310520
:10073000E9F477FF1AC06DE20E9405038C0144279B
:100740005527BA014C195D096E097F092AE0CE01CF
:100750000E942003800F911FDF91CF911F910F9175
:10076000FF90EF90DF90CF9008952AE0B701A601A7
:10077000CE01DF91CF911F910F91FF90EF90DF900D
:10078000CF900C9420039A01AB01662757FD60952A
:10079000762F0C9479030F931F93CF93DF93EC0183
:1007A0009A01AB01662757FD6095762F0E94790369
:1007B0008C01CE010E940C03800F911FDF91CF911D
:1007C0001F910F9108954F925F926F927F928F9237
:1007D0009F92AF92BF92CF92DF92EF92FF920F93D0
:1007E0001F93CF93DF93EC016A017B01B22E9A0134
:1007F000AB01C701B6010E946A0C882319F06BE0B7
:1008000071E027C026013701E89477F82FEF3FEF1A
:100810004FE75FE7C301B2010E946A0C81110DC06E
:100820002FEF3FEF4FE75FE7C301B2010E94B40A29
:1008300018161CF46FE071E00CC02FEF3FEF4FE78C
:100840005FE4C701B6010E94030C1816ACF463E123
:1008500071E0CE01DF91CF911F910F91FF90EF904A
:10086000DF90CF90BF90AF909F908F907F906F90D0
:100870005F904F900C94ED022FEF3FEF4FE75FEC4E
:10088000C701B6010E94B40A87FDE1CF20E030E045
:10089000A901C701B6010E94B40A87FF0AC06DE230
:1008A000CE010E9405038C01F7FAF094F7F8F0945A
:1008B00002C000E010E0A12C60E070E080E09FE367
:1008C000AB1441F020E030E040E251E40E94B80A6D
:1008D000A394F6CF9B01AC01C701B6010E94500A58
:1008E0006B017C010E94250B2B013C010E94510BE6
:1008F0009B01AC01C701B6010E944F0A6B017C014C
:100900002AE0B301A201CE010E942003080F191FA3
:10091000BB2039F067E171E0CE010E94ED02080FC3
:10092000191F7B2C772041F120E030E040E251E4B8
:10093000C701B6010E94070C6B017C010E94200BCD
:100940004B01AA2497FCA094BA2C2AE030E0B50110
:10095000A401CE010E947903080F191FC501B4013B
:100960000E94530B9B01AC01C701B6010E944F0AC4
:100970006B017C017A94D6CFC801DF91CF911F9192
:100980000F91FF90EF90DF90CF90BF90AF909F902E
:100990008F907F906F905F904F9008950C94E30339
:1009A0000F931F93CF93DF93EC010E94BE096887DA
:1009B00079878A879B87E881F9810084F185E02D1A
:1009C000CE01099597FF15C00E94BE0908851985BB
:1009D0002A853B85601B710B820B930B0C811D815B
:1009E0002E813F81601771078207930720F38FEFF5
:1009F0009FEFDF91CF911F910F910895CF93DF93D8
:100A0000EC01CE010E94D00497FD11C08D329105FA
:100A100071F09C01205331092A30310540F0E88102
:100A2000F9810680F781E02DCE010995EACFDF91AB
:100A3000CF910895CF92DF92FF920F931F93CF93A0
:100A4000DF9300D000D0CDB7DEB76C01062F0E9437
:100A5000FE04FC0197FD4BC020E030E0A901F12C21
:100A6000112707FD1095E017F107E9F0ED32F105C8
:100A7000C1F0CF01C0970A97B0F4AAE0B0E00E949D
:100A8000D10C9B01AC01CF01AA2797FDA095BA2FED
:100A9000280F391F4A1F5B1F205331094109510993
:100AA00002C0FF24F394D601ED91FC910680F781FA
:100AB000E02DC60129833A834B835C830995C601E7
:100AC0000E94D004FC01C09729813A814B815C814E
:100AD0000A9748F2E017F10731F2FF2061F066272C
:100AE0007727CB01621B730B840B950B06C060E06C
:100AF00070E0CB0102C0CA01B9010F900F900F90B6
:100B00000F90DF91CF911F910F91FF90DF90CF90C9
:100B1000089561E00C941A050E94CA090E9495008C
:100B2000C5E6D6E00E94C5002097E1F30E94650665
:100B3000F9CFFC0124853585F901E05CFF4F808108
:100B40009181329620813181821B930B8F7399277B
:100B50000895FC0184859585FC01E05CFF4F408190
:100B600051813296208131814217530741F0019023
:100B7000F081E02DE80FF91F808190E008958FEF5C
:100B80009FEF0895FC0184859585FC01E05CFF4F93
:100B9000408151813296208131814217530779F08B
:100BA000A081B181A80FB91F8C91208131812F5F65
:100BB0003F4F2F7333273183208390E008958FEFC9
:100BC0009FEF0895FC0181A1882329F0A489B589AC
:100BD0008C9186FFFBCF11A20895CF93DF93FC0188
:100BE00026853785D901A05CBF4F8D919C911197C7
:100BF00001968F739927E901CE5BDF4F48815981B8
:100C000084179507D9F30D90BC91A02DA20FB31FA7
:100C10006C93A685B785A05CBF4F11969C938E936D
:100C2000A689B7892C9181E090E0078C02C0880FDB
:100C3000991F0A94E2F7282B2C9381E081A3048862
:100C4000F589E02D80818064808381E090E0DF91F0
:100C5000CF91089508951F920F920FB60F9211240D
:100C60002F933F934F938F939F93EF93FF93809195
:100C7000C00082FD1CC04091C6008091D3019091BC
:100C8000D40101968F7399272091D5013091D60117
:100C90008217930771F0E091D301F091D401ED56E2
:100CA000FE4F40839093D4018093D30102C0809182
:100CB000C600FF91EF919F918F914F913F912F919E
:100CC0000F900FBE0F901F9018958DE291E00E943B
:100CD0009905892B11F00C942A0608951F920F9202
:100CE0000FB60F9211242F933F938F939F93EF93FF
:100CF000FF9320918F01309190018091910190910B
:100D000092012817390731F48091C1008F7D8093BB
:100D1000C10014C0E0919101F0919201E15BFE4F9E
:100D20002081809191019091920101968F73992772
:100D300090939201809391012093C600FF91EF91CF
:100D40009F918F913F912F910F900FBE0F901F9009
:100D50001895CF92DF92EF92FF92CF93DF93EC0141
:100D60006A017B01411581EE580761057105F9F0B3
:100D7000EC89FD8981E090E008A002C0880F991FEE
:100D80000A94E2F7808360E079E08DE390E0A701C8
:100D900096010E948A0C215031094109510956954A
:100DA000479537952795211580E1380798F0EC890C
:100DB000FD89108260E874E88EE190E0A701960159
:100DC0000E948A0C215031094109510956954795D5
:100DD00037952795E889F9893083EA89FB8920834B
:100DE00019A2EE89FF89408181E090E09C010C8C82
:100DF00002C0220F331F0A94E2F7422B4083EE8990
:100E0000FF8940819C010D8C02C0220F331F0A9480
:100E1000E2F7422B4083EE89FF8940819C010E8CD2
:100E200002C0220F331F0A94E2F7422B4083EE895F
:100E3000FF8920810F8C02C0880F991F0A94E2F766
:100E4000809582238083DF91CF91FF90EF90DF9098
:100E5000CF9008951092300110922F0188EE93E008
:100E6000A0E0B0E08093310190933201A093330170
:100E7000B09334018DE191E090932E0180932D0188
:100E800083E991E090933A01809339018FE491E0F6
:100E900090933C0180933B0185EC90E090933E0160
:100EA00080933D0184EC90E09093400180933F015A
:100EB00080EC90E0909342018093410181EC90E0BE
:100EC000909344018093430182EC90E0909346011B
:100ED0008093450186EC90E0909348018093470110
:100EE00084E08093490183E080934A0187E0809306
:100EF0004B0185E080934C0181E080934D01089582
:100F00001F920F920FB60F9211242F933F934F937E
:100F10005F936F937F938F939F93AF93BF93EF9361
:100F2000FF938091D80187FF05C010928500109231
:100F300084001AC02091D801332727FD3095809175
:100F4000D70190E0281739077CF48091D8019927C0
:100F500087FD9095FC01EE0FFF1FE80FF91FE75288
:100F6000FE4F808186FD15C08091D8018F5F8093F0
:100F7000D8012091D801332727FD30958091D701E2
:100F800090E028173907BCF48091D8018C305CF1CF
:100F900012C08091D801992787FD9095FC01EE0F32
:100FA000FF1FE80FF91FE752FE4F808160E08F734B
:100FB0000E946602D9CF80918400909185000496AA
:100FC00080349C4918F480E49CE905C08091840039
:100FD00090918500049690938900809388008FEF0C
:100FE0008093D80138C08091840090918500209131
:100FF000D801332727FD3095F901EE0FFF1FE20FCF
:10100000F31FE752FE4F21813281820F931F90938D
:101010008900809388008091D801992787FD909559
:10102000FC01EE0FFF1FE80FF91FE752FE4F808112
:1010300086FF11C08091D801992787FD9095FC010A
:10104000EE0FFF1FE80FF91FE752FE4F808161E0AE
:101050008F730E946602FF91EF91BF91AF919F91B4
:101060008F917F916F915F914F913F912F910F9051
:101070000FBE0F901F9018952091D7012C30A0F42F
:1010800031E0320F3093D701FC012083822F90E0B2
:10109000FC01EE0FFF1FE80FF91FE752FE4F88EB30
:1010A0009BE09283818308952FEFFC0120830895B4
:1010B000DF92EF92FF920F931F93CF93DF93EC0198
:1010C000D62E7A01890188818C3008F066C061E0F3
:1010D0008D2D0E942D028881A82FB0E0FD01EE0F1A
:1010E000FF1FEA0FFB1FE752FE4F2D2D2F7390813C
:1010F000907C922B908360E272E06E197F0977FFFB
:1011000002C06D5F7F4F759567957595679569838B
:1011100040E659E0401B510B57FF02C04D5F5F4F47
:1011200055954795559547954A836CE00E947E0CEE
:101130009CE0899FB001112420E030E0A901460F16
:10114000571FFA01EE0FFF1FE40FF51FE752FE4F86
:10115000908196FD16C02F5F3F4F2C30310571F7FF
:1011600081110FC01092800082E080938100109264
:10117000850010928400B19A80916F008260809304
:101180006F00888190E0FC01EE0FFF1FE80FF91F50
:10119000E752FE4F8081806480838881DF91CF9108
:1011A0001F910F91FF90EF90DF90089520E639E0B6
:1011B00040E252E00C945808FC0180818C3070F5BC
:1011C000918128E830E0291B310997FD3395220FE2
:1011D000331F220F331F621773077CF0928128E5BB
:1011E00032E0291B310997FD3395220F331F220F5F
:1011F000331F621773070CF49B014FB7F89490E00C
:10120000FC01EE0FFF1FE80FF91FE752FE4F2250BF
:101210003109220F331F328321834FBF08954F922C
:101220005F926F927F92AF92BF92CF92DF92EF92D6
:10123000FF920F931F93CF93DF93EC01603282E014
:1012400078070CF040C077FD06C0653B71052CF0B7
:1012500064EB70E002C060E070E0898128E830E073
:10126000281B310987FD3395220F331F220F331FAF
:101270005901CC24B7FCC094DC2C882777FD8095DD
:10128000982F2A8148E552E0421B510927FD5395CA
:10129000440F551F440F551F2A01662457FC6094C4
:1012A000762C7F926F925F924F9214EBE12EF12C8D
:1012B00000E010E020E030E0A9010E94050A0F9054
:1012C0000F900F900F90CE01DF91CF911F910F9152
:1012D000FF90EF90DF90CF90BF90AF907F906F9096
:1012E0005F904F900C94DC081F920F920FB60F92F4
:1012F00011242F933F938F939F93AF93BF9380912C
:10130000FE019091FF01A0910002B0910102309185
:10131000FD0123E0230F2D3720F40196A11DB11DFF
:1013200005C026E8230F0296A11DB11D2093FD01E3
:101330008093FE019093FF01A0930002B0930102FD
:101340008091020290910302A0910402B0910502E3
:101350000196A11DB11D8093020290930302A093F8
:101360000402B0930502BF91AF919F918F913F917D
:101370002F910F900FBE0F901F9018952FB7F894D4
:101380006091FE017091FF01809100029091010235
:101390002FBF0895789484B5826084BD84B5816040
:1013A00084BD85B5826085BD85B5816085BDEEE66D
:1013B000F0E0808181608083E1E8F0E0108280814C
:1013C00082608083808181608083E0E8F0E08081BA
:1013D00081608083E1EBF0E0808184608083E0EBDA
:1013E000F0E0808181608083EAE7F0E080818460C2
:1013F000808380818260808380818160808380811E
:10140000806880831092C10008954F925F926F921E
:101410007F92AF92BF92CF92DF92EF92FF920F93A3
:101420001F93CF93DF93CDB7DEB729013A01621B3B
:10143000730B840B950B29893A894B895C892A198E
:101440003B094C095D09298B3A8B4B8B5C8B9B01CB
:10145000AC0169897A898B899C890E946E0CE41899
:10146000F50806091709A80197010E94AC0C2A0D7E
:101470003B1D4C1D5D1DCA01B901DF91CF911F912C
:101480000F91FF90EF90DF90CF90BF90AF907F9043
:101490006F905F904F900895F8940C94EB0C505817
:1014A000BB27AA270ED075C166D130F06BD120F0D2
:1014B00031F49F3F11F41EF45BC10EF4E095E7FB9D
:1014C00051C1E92F77D180F3BA17620773078407F8
:1014D000950718F071F49EF58FC10EF4E0950B2E70
:1014E000BA2FA02D0B01B90190010C01CA01A00176
:1014F0001124FF27591B99F0593F50F4503E68F1D1
:101500001A16F040A22F232F342F4427585FF3CF11
:10151000469537952795A795F0405395C9F77EF4E2
:101520001F16BA0B620B730B840BBAF09150A1F02B
:10153000FF0FBB1F661F771F881FC2F70EC0BA0FB1
:10154000621F731F841F48F4879577956795B79539
:10155000F7959E3F08F0B3CF9395880F08F0992731
:10156000EE0F979587950895D9D008F481E00895F6
:101570000CD00FC107D140F0FED030F021F45F3F16
:1015800019F0F0C0511139C1F3C014D198F3992367
:10159000C9F35523B1F3951B550BBB27AA27621737
:1015A0007307840738F09F5F5F4F220F331F441F7C
:1015B000AA1FA9F333D00E2E3AF0E0E830D09150B4
:1015C0005040E695001CCAF729D0FE2F27D0660FA1
:1015D000771F881FBB1F261737074807AB07B0E8E0
:1015E00009F0BB0B802DBF01FF2793585F4F2AF0F6
:1015F0009E3F510568F0B6C000C15F3FECF3983ED6
:10160000DCF3869577956795B795F7959F5FC9F752
:10161000880F911D9695879597F90895E1E0660FDB
:10162000771F881FBB1F621773078407BA0720F054
:10163000621B730B840BBA0BEE1F88F7E0950895BD
:1016400004D06894B111D9C00895BCD088F09F57D8
:1016500090F0B92F9927B751A0F0D1F0660F771FFE
:10166000881F991F1AF0BA95C9F712C0B13081F0DE
:10167000C3D0B1E00895C0C0672F782F8827B85F26
:1016800039F0B93FCCF3869577956795B395D9F73F
:101690003EF490958095709561957F4F8F4F9F4F49
:1016A0000895E89409C097FB3EF490958095709555
:1016B00061957F4F8F4F9F4F9923A9F0F92F96E99E
:1016C000BB279395F695879577956795B795F11113
:1016D000F8CFFAF4BB0F11F460FF1BC06F5F7F4FB0
:1016E0008F4F9F4F16C0882311F096E911C07723C2
:1016F00021F09EE8872F762F05C0662371F096E8CB
:10170000862F70E060E02AF09A95660F771F881F99
:10171000DAF7880F9695879597F90895990F00083D
:10172000550FAA0BE0E8FEEF16161706E807F907B3
:10173000C0F012161306E407F50798F0621B730B4E
:10174000840B950B39F40A2661F0232B242B252BCF
:1017500021F408950A2609F4A140A6958FEF811D72
:10176000811D089597F99F6780E870E060E0089513
:101770009FEF80EC089500240A94161617061806A9
:101780000906089500240A94121613061406050685
:101790000895092E0394000C11F4882352F0BB0F16
:1017A00040F4BF2B11F460FF04C06F5F7F4F8F4F79
:1017B0009F4F089557FD9058440F551F59F05F3FB4
:1017C00071F04795880F97FB991F61F09F3F79F063
:1017D00087950895121613061406551FF2CF4695E5
:1017E000F1DF08C0161617061806991FF1CF869567
:1017F0007105610508940895E894BB27662777274B
:10180000CB0197F908958ADF08F48FEF08950BD084
:10181000C0CFB1DF28F0B6DF18F0952309F0A2CFD2
:10182000A7CF1124EACFC6DFA0F3959FD1F3950F80
:1018300050E0551F629FF001729FBB27F00DB11D54
:10184000639FAA27F00DB11DAA1F649F6627B00DE4
:10185000A11D661F829F2227B00DA11D621F739FCD
:10186000B00DA11D621F839FA00D611D221F749FDB
:101870003327A00D611D231F849F600D211D822F22
:10188000762F6A2F11249F5750408AF0E1F0882369
:101890004AF0EE0FFF1FBB1F661F771F881F915076
:1018A0005040A9F79E3F510570F05CCFA6CF5F3F37
:1018B000ECF3983EDCF3869577956795B795F795A9
:1018C000E7959F5FC1F7FE2B880F911D9695879531
:1018D00097F9089523DF880B990B0895DB018F9307
:1018E0009F930E94D10CBF91AF91A29F800D911D3B
:1018F000A39F900DB29F900D11240895991B79E03C
:1019000004C0991F961708F0961B881F7A95C9F78F
:1019100080950895A1E21A2EAA1BBB1BFD010DC0E4
:10192000AA1FBB1FEE1FFF1FA217B307E407F5078F
:1019300020F0A21BB30BE40BF50B661F771F881F6B
:10194000991F1A9469F760957095809590959B0101
:10195000AC01BD01CF010895052E97FB1EF4009444
:101960000E94C30C57FD07D00E948A0C07FC03D0CD
:101970004EF40C94C30C50954095309521953F4FF3
:101980004F4F5F4F089590958095709561957F4F6B
:101990008F4F9F4F0895EE0FFF1F0590F491E02D9C
:1019A00009940E94DC0CA59F900DB49F900DA49FFC
:1019B000800D911D11240895A29FB001B39FC00115
:1019C000A39F700D811D1124911DB29F700D811D6B
:0A19D0001124911D0895F894FFCF33
:1019DA00010000000000A0400120006E616E006955
:1019EA006E66006F7666002E0000000000ED05C5E9
:0A19FA00029905C205A905E20500E7
:00000001FF
